:020000040800F2
:1000000000C00020450900086505000867050008D4
:10001000690500086B0500086D0500080000000078
:100020000000000000000000000000006F05000854
:100030007105000800000000730500087505000840
:100040008D0900088D0900088D0900088D09000838
:100050008D0900088D0900088D0900088D09000828
:100060008D0900088D0900088D0900088D09000818
:100070007D0500088D0500089D0500088D09000814
:10008000AD0500088D0900088D0900088D090008DC
:100090008D090008BD0500088D0900088D090008BC
:1000A0008D0900088D0900088D0900088D090008D8
:1000B0008D0900088D0900088D0900088D090008C8
:1000C0008D0900088D0900088D0900088D090008B8
:1000D0008D090008CD0500088D0900088D0900086C
:1000E0008D0900088D0900088D0900088D09000898
:1000F0008D0900088D0900088D0900088D09000888
:100100008D0900088D0900088D0900088D09000877
:100110008D0900088D0900088D0900088D09000867
:100120008D0900088D0900088D0900088D09000857
:1001300000000000000000000000000000000000BF
:1001400000000000000000000000000000000000AF
:10015000000000000000000000000000000000009F
:10016000000000000000000000000000000000008F
:10017000000000000000000000000000000000007F
:10018000000000000000000000000000000000006F
:10019000000000000000000000000000000000005F
:1001A000000000000000000000000000000000004F
:1001B000000000000000000000000000000000003F
:1001C000000000000000000000000000000000002F
:1001D000000000000000000000000000000000001F
:0401E0005FF8E0F1F3
:1001E4000348044B834202D0034B03B118477047C2
:1001F4001000002010000020000000000548064BFD
:100204001B1AD90F01EBA301491002D0034B03B110
:100214001847704710000020100000200000000064
:1002240010B5064C237843B9FFF7DAFF044B13B13A
:100234000448AFF300800123237010BD1000002098
:1002440000000000742D000808B5054B1BB10549DA
:100254000548AFF30080BDE80840FFF7CFBF00BFFB
:100264000000000014000020742D000800B585B0C3
:1002740000230193029303931148124A026083609E
:10028400037303754FF46022C26143600123036169
:1002940000F092FC68B91023019301230293002318
:1002A400039301A9064800F0BBFB28B905B05DF82B
:1002B40004FB00F0DBF8EEE700F0D8F8F6E700BF47
:1002C4002C000020002401400268094B9A4200D00F
:1002D400704782B003F56C439A6942F400729A61E4
:1002E4009B6903F400730193019B02B0704700BF44
:1002F4000024014008B50B480B4B036010234360F6
:1003040000238360C360036143610376437683768D
:10031400C3760377437700F0E3FC00B908BD00F02F
:10032400A5F8FBE75C0000200064004010B586B02F
:100334000023029303930493059302681E4B9A428D
:1003440001D006B010BD03F5D633DA6942F000726D
:10035400DA61DA6902F000720092009A9A6942F056
:1003640008029A619B6903F008030193019B4FF40F
:1003740080730293114C02A9204601F09DF94FF4B9
:1003840000730293022303930323059302A92046D7
:1003940001F092F90A4A536823F4C04343F0E0633E
:1003A40043F48043536000221146152000F0B6FE4A
:1003B400152000F0C3FEC4E700640040000C0140B7
:1003C4000000014000B583B0164B5A6942F00102A7
:1003D4005A615B6903F001030193019B00221146FA
:1003E4000C2000F09BFE0C2000F0A8FE0022114619
:1003F4000D2000F093FE0D2000F0A0FE0022114617
:100404000E2000F08BFE0E2000F098FE0022114614
:10041400102000F083FE102000F090FE03B05DF881
:1004240004FB00BF0010024084B00F4B9A6942F0F5
:1004340020029A619A6902F020020192019A9A6953
:1004440042F004029A619A6902F004020292029A4A
:100454009A6942F008029A619B6903F008030393C6
:10046400039B04B0704700BF0010024072B6FEE761
:1004740000B597B0282200210CA802F0A3FB0023AA
:100484000793089309930A930B930193029303939D
:1004940004930593069301220C924FF480330D9339
:1004A40010920222139214934FF4801315930CA804
:1004B40001F034FAC8B90F230793022108910023ED
:1004C40009934FF480620A920B9307A801F05EFC33
:1004D40068B9022301934FF40043039301A801F088
:1004E40031FD30B917B05DF804FBFFF7BFFFFFF72C
:1004F400BDFFFFF7BBFF08B500F06EFAFFF7B8FFCA
:10050400FFF792FFFFF75EFF00F024F9FFF7AEFE5E
:10051400FFF7F0FE00F0AEF9FEE7000082B00E4BEC
:100524009A6942F001029A619A6902F0010200920A
:10053400009ADA6942F08052DA61DB6903F0805391
:100544000193019B054A536823F0E06343F0007371
:10055400536002B0704700BF001002400000014029
:10056400FEE7FEE7FEE7FEE7FEE7704770477047E9
:1005740008B500F043FA08BD08B5024800F026FFAC
:1005840008BD00BF5001002008B5024800F01EFF5E
:1005940008BD00BF0C01002008B5024800F016FF9A
:1005A40008BD00BF8400002008B5024800F00EFF1B
:1005B40008BD00BFC800002008B5024800F043FC95
:1005C40008BD00BF5C00002008B5024802F0AEF987
:1005D40008BD00BFDC010020704700000268404BEA
:1005E4009A4200D0704710B582B0044603F56443C4
:1005F4009A6942F400629A619B6903F4006301936F
:10060400019B3848384B0360102343600023836008
:100614008022C2604FF4807202614FF480624261B2
:100624008361C36100F0ACFD00284CD12D4B6362A3
:100634005C622E482E4B03601023436000238360CA
:100644008022C2604FF4807202614FF48062426182
:100654008361C36100F094FD002837D1234BA3626A
:100664005C622448244B03601023436000238360AE
:100674008022C2604FF4807202614FF48062426152
:100684008361C36100F07CFD18BB1A4BE3625C62BA
:100694001A481B4B036010234360002383608022AD
:1006A400C2604FF4807202614FF4806242618361E0
:1006B400C36100F065FD78B9104B23635C62A363EA
:1006C400636302B010BDFFF7D1FEAFE7FFF7CEFEC4
:1006D400C4E7FFF7CBFED8E7FFF7C8FEECE700BF9F
:1006E400002C0140500100201C0002400C0100209D
:1006F40030000240C80000206C000240840000204A
:100704004400024000B587B000230293039304938E
:10071400059302680D4B9A4202D007B05DF804FBC2
:1007240003F564439A6942F004029A619B6903F0F9
:1007340004030193019B4FF4706302930223039318
:10074400059302A9024800F0B7FFE6E7002C014038
:100754000008014010B596B0002412941394149428
:1007640015941094119409940A940B940C940D9478
:100774000E940F942022214601A802F023FA3B484C
:100784003B4B0360446084604FF6FF73C3600461B5
:100794004461846101F074FD00284BD14FF480530F
:1007A400129312A9314801F075FE002845D12F4853
:1007B40001F092FD002843D100231093119310A956
:1007C4002A4801F0E7FE00283DD160230993002266
:1007D4000A920B920C920D920E920F9209A9234841
:1007E40001F0DEFD002831D1042209A91F4801F0DF
:1007F400D7FD70BB082209A91C4801F0D1FD58BBE4
:100804000C2209A9194801F0CBFD40BB0023019338
:1008140002930393049305934FF4005206920893B2
:1008240001A9124801F0F4FEE0B91048FFF76AFF8D
:1008340016B010BDFFF71AFEB0E7FFF717FEB6E7D4
:10084400FFF714FEB8E7FFF711FEBEE7FFF70EFE51
:10085400CAE7FFF70BFECDE7FFF708FED0E7FFF787
:1008640005FED3E7FFF702FEDFE700BF9401002097
:10087400002C014008B50A480A4B03604FF4E133E9
:10088400436000238360C36003610C22426183617F
:10089400C36101F08FFF00B908BDFFF7E7FDFBE777
:1008A400DC0100200038014030B587B000230293FA
:1008B40003930493059302681E4B9A4201D007B038
:1008C40030BD03F558439A6942F480429A619A69AB
:1008D40002F480420092009A9A6942F008029A61F6
:1008E4009B6903F008030193019B402302930223B5
:1008F400039303230593104D02A9284600F0DCFE60
:100904008023029300240394049402A9284600F04F
:10091400D3FE0A4A536843F0E06343F00403536090
:1009240022462146252000F0F9FB252000F006FC94
:10093400C5E700BF00380140000C01400000014041
:10094400FFF74AFE0B480C490C4A002302E0D45836
:10095400C4500433C4188C42F9D3094A094C002307
:1009640001E013600432A242FBD302F07BF9FFF7EB
:10097400C2FD70470000002010000020C42D0008B4
:1009840010000020C0030020FEE7000010B504465C
:100994000E4B1A784FF47A73B3FBF2F30C4A1068D7
:1009A400B0FBF3F000F0D8FB68B90F2C01D901209B
:1009B4000AE0002221464FF0FF3000F0AFFB054B68
:1009C4001C60002000E0012010BD00BF04000020D6
:1009D400000000200800002008B5074A136843F00F
:1009E40010031360032000F087FB0F20FFF7CEFFF6
:1009F400FFF794FD002008BD00200240034A11685F
:100A0400034B1B780B441360704700BF2402002083
:100A140004000020014B1868704700BF2402002026
:100A240030B482B00022019290F82420012A00F010
:100A34008F800346012280F824204A68062A2DD894
:100A44000468606B02EB8202053A4FF01F0C0CFA4B
:100A540002FC20EA0C000D6805FA02F2024362630C
:100A64000A68092A38D91C68E06802EB42021E3A77
:100A74004FF0070C0CFA02FC20EA0C008D6805FA12
:100A840002F20243E2600A68103A012A34D90020D3
:100A9400002283F8242002B030BC70470C2A0DD801
:100AA4000568286B02EB8202233A1F24944020EA53
:100AB40004000C68944020432863D1E70568E86A81
:100AC40002EB8202413A1F24944020EA04000C689D
:100AD40094402043E862C3E71C68206902EB4202A9
:100AE4004FF0070C0CFA02FC20EA0C008D6805FAA2
:100AF40002F202432261C6E71A681648824205D010
:100B04009A6A42F020029A620120C1E7906810F4C8
:100B1400000F1BD1906840F4000090600A68102A0E
:100B240001D00020B4E70C4A12680C49A1FB021260
:100B3400920C02EB82025200019202E0019A013A05
:100B44000192019A002AF9D10020A1E700209FE731
:100B54000220A0E7002401400000002083DE1B43A4
:100B640038B503689A6812F0010F01D1002038BD2E
:100B740004469A6822F001029A60FFF74BFF05468B
:100B840023689B6813F0010F13D0FFF743FF431B47
:100B9400022BF5D923689B6813F0010FF0D0A36AE8
:100BA40043F01003A362E36A43F00103E36201200C
:100BB400DDE70020DBE70000002800F0888070B546
:100BC4000446836A002B52D02046FFF7C9FFA36A6C
:100BD40013F0100375D1002873D1A26A22F488524D
:100BE40022F0020242F00202A262626826683949D7
:100BF4008E4242D0E1690A43217B42EA4102A56860
:100C0400B5F5807F02D0012D3ED01D4694F814C066
:100C1400BCF1010F3BD0716821F469412943716033
:100C24002568AE682C4931401143A960A168B1F52B
:100C3400807F01D0012902D12369013B1B0525686E
:100C4400E96A21F470010B43EB6223689968234B32
:100C54000B409A422CD0A36A23F0120343F01003F2
:100C6400A362E36A43F00103E36201202EE0C3625E
:100C740080F82430FFF728FBA6E7E169B1F5402F9F
:100C8400B9D14FF40021B6E74FF48075BEE731B90E
:100C9400A169013945EA413141F40065BBE7A16A24
:100CA40041F02001A162E16A41F00101E162B2E791
:100CB4000023E362A36A23F0030343F00103A36266
:100CC40004E0A36A43F01003A362012070BD012075
:100CD400704700BF003C0140FDF7E1FFFE0E1FFF1F
:100CE400002800F0A18038B5044690F82030D3B134
:100CF4002268136843F001031360FFF78BFE054677
:100D040023685A6812F0010F10D1FFF783FE401BCD
:100D14000A28F5D9636A43F400336362052384F82F
:100D24002030012038BDFFF701FBE1E71A6822F00B
:100D340002021A60FFF76EFE054623685A6812F035
:100D4400020F0DD0FFF766FE401B0A28F5D9636A2F
:100D540043F400336362052384F820300120E1E783
:100D6400227E012A3DD01A6822F080021A60637E36
:100D7400012B3BD02268136823F040031360A37E49
:100D8400012B39D02268136823F020031360E37E1B
:100D9400012B37D02268136843F010031360237FBC
:100DA400012B35D02268136823F008031360637F96
:100DB400012B33D02268136823F004031360A36863
:100DC400E268134322691343626913436268013A78
:100DD40021681343CB6100206062012384F8203032
:100DE400A0E71A6842F080021A60C0E7226813681C
:100DF40043F040031360C2E72268136843F0200302
:100E04001360C4E72268136823F010031360C6E775
:100E14002268136843F008031360C8E72268136864
:100E240043F004031360CAE701207047704770471A
:100E340070477047704770477047704770477047F6
:100E44007047704770472DE9F84F054603685C69A1
:100E5400D3F804809F68D3F80CB0D3F810A0D3F86B
:100E6400189014F001063BD017F0010616D00122A9
:100E74009A6017F0020F08D117F0040F0CD117F085
:100E8400080606D04FF4805608E0FFF7CFFF00268F
:100E940004E0FFF7CEFF01E04FF4006617F4807F13
:100EA4000DD02B684FF480729A6017F4007F40F0E5
:100EB400868017F4806F00F0868046F4005617F49D
:100EC400803F0DD02B684FF480329A6017F4003FB6
:100ED40040F0838017F4802F00F0838046F40046AE
:100EE40014F0080F07D01BF0100F04D046F400765E
:100EF4002B681022DA6014F0040F02D01BF0080FE4
:100F040079D114F0020F04D02B68DB6813F0030FBF
:100F140078D114F0400F07D01AF0100F04D046F423
:100F240080662B6810221A6114F0200F02D01AF088
:100F3400080F6BD114F0100F04D02B681B6913F049
:100F4400030F6AD114F4003F02D018F0100F68D1D7
:100F540014F4803F02D018F0080F69D114F4004F44
:100F64007AD018F0040F74D014F4807F04D019F0F0
:100F7400010F01D046F0010614F4007F04D019F0EB
:100F8400020F01D046F0020614F4806F04D019F069
:100F9400040F01D046F0040614F4006F59D019F080
:100FA400700956D0B9F1400F65D058D8B9F1200F67
:100FB4005ED0B9F1300F42D146F0200644E0284615
:100FC400FFF735FF7BE717F4006F02D046F4804645
:100FD40075E72846FFF72EFF71E72846FFF728FF3D
:100FE4007EE717F4002F02D046F4803678E72846CF
:100FF400FFF721FF74E72B680822DA602846FFF721
:101004001CFF7EE72846FFF717FF82E72B680822BC
:101014001A612846FFF713FF8CE72846FFF70EFFF7
:1010240090E72B6810225A602846FFF709FF8FE7E4
:101034002B6808225A602846FFF703FF8EE7B9F1B0
:10104400100F01D146F008062A68936923F0700353
:1010540093612B6804225A609EB9BDE8F88FB9F1F8
:10106400500F0BD0B9F1600FEED146F48076EBE768
:1010740046F01006E8E746F04006E5E746F080064D
:10108400E2E76B6A33436B622846FFF7DBFEE4E773
:10109400002808DB0901C9B200F1604000F5614095
:1010A40080F80013704700F00F000901C9B2014B2A
:1010B4001954704714ED00E000B500F00700C0F1CA
:1010C400070CBCF1040F28BF4FF0040C031D062BC2
:1010D4000FD9C31E4FF0FF3E0EFA0CF021EA0001B7
:1010E40099400EFA03FE22EA0E0241EA02005DF87C
:1010F40004FB0023EEE70000074AD36823F4E0630F
:101104001B041B0C000200F4E060034343F0BF63C4
:1011140043F40033D360704700ED00E010B504469B
:10112400054BD868C0F30220FFF7C6FF01462046EE
:10113400FFF7AEFF10BD00BF00ED00E0002807DBA5
:1011440000F01F02400901239340024A42F8203074
:10115400704700BF00E100E00138B0F1807F0BD29E
:101164004FF0E0235861054AF02182F82310002053
:10117400986107221A6170470120704700ED00E072
:1011840000283AD010B4024600681D4B984229D872
:101194001C4B03441C49A1FB03131B099B00136450
:1011A4001A4BD363022382F82130016821F47F5162
:1011B40021F03001536894682343D46823431469AD
:1011C40023435469234394692343D46923430B433E
:1011D400036000209063012382F8213082F820000C
:1011E40010BC70470A4B03440749A1FB03131B09B6
:1011F4009B001364074BD363D4E70120704700BFFF
:1012040007040240F8FFFDBFCDCCCCCC0000024067
:10121400F8FBFDBF00040240034690F82120D2B23F
:10122400022A06D004228263002280F820200120B2
:10123400704701680A6822F00E020A6001680A68B1
:1012440022F001020A60026CC06B012101FA02F271
:10125400426083F82110002083F8200070470000CA
:1012640008B590F82130DBB2022B03D0042383634A
:10127400012008BD0268136823F00E03136002689E
:10128400136823F00103136003684C4A93424ED958
:10129400783A934224D01432934230D01432934299
:1012A4002FD0143293422FD0143293422FD01432C1
:1012B40093422FD0143293422FD002F5627293429C
:1012C4002ED0143293422DD0143293422CD01432A7
:1012D400934202D04FF4803203E04FF4805200E096
:1012E4000122374B5A60012380F82130002380F813
:1012F4002030436B002B5ED098470020B9E71022C2
:10130400EFE74FF48072ECE74FF48052E9E74FF4D3
:101314008032E6E74FF48012E3E74FF08072E0E7B3
:101324000122DEE71022DCE74FF48072D9E7254A78
:10133400934224D01432934225D01432934224D0C1
:101344001432934224D01432934224D01432934260
:1013540024D01432934224D002F56272934223D0F3
:101364001432934222D01432934221D01432934245
:1013740002D04FF4803203E04FF4805200E00122A7
:10138400114B5A60AFE71022FAE74FF48072F7E787
:101394004FF48052F4E74FF48032F1E74FF48012B7
:1013A400EEE74FF08072EBE70122E9E71022E7E76E
:1013B4004FF48072E4E700205BE700BF8000024046
:1013C40000040240080002400000024038B5C36B2C
:1013D4001A6804682568016C04238B40134200F0EA
:1013E4009B8015F0040F00F09780236813F0200F02
:1013F40003D1236823F00403236003689A4A9342C9
:1014040046D9783A934224D01432934228D01432E5
:10141400934227D01432934227D01432934227D0D8
:101424001432934227D01432934227D002F56272C9
:10143400934226D01432934225D01432934224D0BE
:101444001432934202D04FF4802203E04FF48042DE
:1014540000E00422854B5A60C36A03B1984738BD43
:101464004022F7E74FF48062F4E74FF48042F1E75B
:101474004FF48022EEE74FF48002EBE74FF08062F6
:10148400E8E70422E6E74022E4E74FF48062E1E77C
:10149400774A934224D01432934225D01432934293
:1014A40024D01432934224D01432934224D01432E0
:1014B400934224D01432934224D002F562729342B0
:1014C40023D01432934222D01432934221D01432C6
:1014D400934202D04FF4802203E04FF4804200E0B4
:1014E4000422644B5A60B7E74022FAE74FF4806263
:1014F400F7E74FF48042F4E74FF48022F1E74FF42A
:101504008002EEE74FF08062EBE70422E9E7402235
:10151400E7E74FF48062E4E702238B40134200F0D4
:10152400AB8015F0020F00F0A780236813F0200FA2
:1015340006D1236823F00A032360012380F82130B5
:101544000368494A93424BD9783A934224D01432DF
:1015540093422DD0143293422CD0143293422CD087
:10156400143293422CD0143293422CD0143293422E
:101574002CD002F5627293422BD0143293422AD0BB
:101584001432934229D01432934202D04FF40032E1
:1015940003E04FF4005200E00222344B5A6000236F
:1015A40080F82030836A002B3FF459AF984756E700
:1015B4002022F2E74FF40072EFE74FF40052ECE719
:1015C4004FF40032E9E74FF40012E6E74FF00072FF
:1015D400E3E70222E1E72022DFE74FF40072DCE7D1
:1015E400234A934224D01432934225D01432934296
:1015F40024D01432934224D01432934224D014328F
:10160400934224D01432934224D002F5627293425E
:1016140023D01432934222D01432934221D0143274
:10162400934202D04FF4003203E04FF4005200E042
:101634000222104B5A60B2E72022FAE74FF40072FC
:10164400F7E74FF40052F4E74FF40032F1E74FF4B8
:101654000012EEE74FF00072EBE70222E9E72022E6
:10166400E7E74FF40072E4E7800002400004024020
:10167400080002400000024008238B4013423FF45C
:10168400EEAE15F0080F3FF4EAAE236823F00E0324
:101694002360026CC16B012303FA02F24A60836384
:1016A40080F82130002380F82030036B002B3FF4B6
:1016B400D6AE9847D3E600BF70B582B00024A446E6
:1016C400ACE0854DAB4210D007D9844DAB420CD071
:1016D40005F58035AB4208D013E0A5F58015AB4283
:1016E40003D005F57025AB4207D18B68002B5FD082
:1016F400012B58D04261082403E0A5F58015AB42C4
:10170400F3D0BEF1FF0F55D806464FEA8C0233687A
:101714000F25954023EA050304FA02F213433360CC
:101724004B6813F0805F77D06D4B9A6942F00102E9
:101734009A619B6903F001030193019B4FEA9C02A8
:10174400951C684B53F825600CF00305AD000F237E
:10175400AB4026EA0306644B984232D003F580631B
:10176400984200F0978003F58063984200F09480DB
:1017740003F58063984200F0918003F580639842FA
:1017840000F08E8003F58063984218D0062319E098
:10179400CC68B6E7CC680434B3E7CC680834B0E767
:1017A400CC680C34ADE702610824AAE70024A8E75A
:1017B4000424A6E7061DACF108029200A7E705235E
:1017C40000E00023AB4033430232464D45F822305B
:1017D4004B6813F4801F65D0444A936843EA0E03B0
:1017E40093604B6813F4001F62D0404AD36843EA05
:1017F4000E03D3604B6813F4003F5FD03B4A536839
:1018040043EA0E0353604B6813F4803F5CD0374ABD
:10181400136843EA0E0313600CF1010C0B6833FAEE
:101824000CF257D0012202FA0CF203EA020E32EA59
:101834000303F1D14B68122B3FF643AF122B3FF653
:1018440060AF01A555F823F0EF16000895170008BE
:101854009F170008B11700080717000807170008AA
:1018640007170008071700080717000807170008DC
:1018740007170008071700080717000807170008CC
:10188400071700080717000807170008991700082A
:10189400A5170008012395E7022393E7032391E7A3
:1018A40004238FE7114A936823EA0E03936098E7B1
:1018B4000E4AD36823EA0E03D3609BE70B4A5368AE
:1018C40023EA0E0353609EE7084A136823EA0E03D3
:1018D4001360A1E702B070BD0000221000003110B7
:1018E40000100240000001400008014000040140D3
:1018F40082B0084B1B68084AA2FB03235B0A00FB67
:1019040003F3019300BF019B5A1E0192002BF9D1EE
:1019140002B0704700000020D34D6210002800F090
:10192400F18170B582B00446036813F0010F2CD026
:10193400994B5B6803F00C03042B1DD0964B5B683A
:1019440003F00C03082B12D06368B3F5803F41D039
:10195400002B55D103F1804303F504331A6822F4B4
:1019640080321A601A6822F480221A6037E08A4BA7
:101974005B6813F4803FE7D0874B1B6813F4003F88
:1019840003D06368002B00F0BF81236813F0020FBB
:1019940075D0814B5B6813F00C0F5FD07E4B5B6896
:1019A40003F00C03082B54D02369002B00F08A8029
:1019B4007A4B01221A60FFF72DF80546764B1B6817
:1019C40013F0020F75D1FFF725F8401B0228F5D953
:1019D40003209EE1704A136843F480331360636804
:1019E40043B3FFF717F805466B4B1B6813F4003F2E
:1019F400CBD1FFF70FF8401B6428F5D9032088E109
:101A0400B3F5A02F09D0644B1A6822F480321A600F
:101A14001A6822F480221A60E1E703F18043A3F5F7
:101A24003C331A6842F480221A601A6842F4803205
:101A34001A60D4E7FEF7EEFF0546574B1B6813F414
:101A4400003FA2D0FEF7E6FF401B6428F5D903202F
:101A54005FE1514B5B6813F4803FA5D14E4B1B688B
:101A640013F0020F03D02369012B40F04F814A4A3F
:101A7400136823F0F803616943EAC1031360236820
:101A840013F0080F33D0A369002B5CD0434B012221
:101A9400C3F88024FEF7BEFF05463F4B5B6A13F094
:101AA400020F21D1FEF7B6FF401B0228F5D903200F
:101AB4002FE1394A136823F0F803616943EAC1034B
:101AC4001360DCE7354B00221A60FEF7A3FF0546DE
:101AD400314B1B6813F0020FD1D0FEF79BFF401B64
:101AE4000228F5D9032014E10120FFF701FF236840
:101AF40013F0040F00F09680274BDB6913F0805F2E
:101B040034D1254BDA6942F08052DA61DB6903F0A3
:101B140080530193019B0125214B1B6813F4807FA3
:101B240026D0E368012B3DD0002B53D103F1804331
:101B340003F504331A6A22F001021A621A6A22F0C7
:101B440004021A6233E0154B0022C3F88024FEF726
:101B540061FF0546104B5B6A13F0020FC7D0FEF716
:101B640059FF401B0228F5D90320D2E00025D3E712
:101B74000B4A136843F480731360FEF74BFF064669
:101B8400074B1B6813F4807FCBD1FEF743FF801B08
:101B94006428F5D90320BCE0001002400000424252
:101BA400007000405F4A136A43F001031362E36864
:101BB40033B3FEF72FFF06465A4B1B6A13F0020F8E
:101BC4002FD1FEF727FF801B41F288339842F3D9C7
:101BD40003209EE0052B09D0524B1A6A22F0010221
:101BE4001A621A6A22F004021A62E0E74D4B1A6A7A
:101BF40042F004021A621A6A42F001021A62D6E73B
:101C0400FEF708FF0646474B1B6A13F0020F08D085
:101C1400FEF700FF801B41F288339842F3D903207A
:101C240077E0E5B9E369002B72D03E4A526802F0CE
:101C34000C02082A56D0022B17D03B4B00221A66FE
:101C4400FEF7E8FE0446374B1B6813F0007F47D0CD
:101C5400FEF7E0FE001B0228F5D9032059E0314AC3
:101C6400D36923F08053D361DCE72F4B00221A663B
:101C7400FEF7D0FE05462B4B1B6813F0007F06D001
:101C8400FEF7C8FE401B0228F5D9032041E0236A71
:101C9400B3F5803F1AD023494B6823F47413226AA6
:101CA400606A024313434B601F4B01221A66FEF71E
:101CB400B1FE04461B4B1B6813F0007F0ED1FEF7E8
:101CC400A9FE001B0228F5D9032022E0154A536817
:101CD40023F40033A1680B435360DCE7002018E0D1
:101CE400002016E0012B16D00E4B5B6803F4803104
:101CF400226A914211D103F47013626A93420ED1A5
:101D0400002006E001207047012002E0012000E0ED
:101D1400002002B070BD0120FBE70120F9E701209B
:101D2400F7E700BF0010024000004242114B5A681E
:101D340002F00C03042B18D0082B18D1C2F38343F0
:101D44000D49C85C12F4803F0BD00A4B5B68C3F3A7
:101D540040430A4AD35C0A4A02FB00F0B0FBF3F0AA
:101D64007047084B03FB00F070470548704706486E
:101D7400704700BF00100240A82D0008A42D0008E1
:101D8400001BB70000093D0000127A00002800F093
:101D9400A08070B50D460446524B1B6803F0070340
:101DA4008B420BD24F4A136823F007030B43136093
:101DB400136803F007038B4240F08D80236813F00F
:101DC400020F17D013F0040F04D0474A536843F4AA
:101DD400E0635360236813F0080F04D0424A536849
:101DE40043F460535360404A536823F0F003A168FE
:101DF4000B435360236813F0010F31D06368012B48
:101E040020D0022B25D0384A126812F0020F64D079
:101E140035494A6822F0030213434B60FEF7FAFD8A
:101E24000646314B5B6803F00C036268B3EB820F28
:101E340016D0FEF7EFFD801B41F288339842F0D9AB
:101E4400032045E0284A126812F4003FE0D1012043
:101E54003EE0254A126812F0007FD9D1012037E014
:101E6400204B1B6803F00703AB420AD91D4A1368D1
:101E740023F007032B431360136803F00703AB42FB
:101E84002DD1236813F0040F06D0174A536823F4A6
:101E9400E063E1680B435360236813F0080F07D035
:101EA400114A536823F46053216943EAC103536020
:101EB400FFF73CFF0C4B5B68C3F303130B4AD35C83
:101EC400D8400B4B18600B4B1868FEF75FFD0020E1
:101ED40070BD012070470120FAE70120F8E70120D6
:101EE400F6E700BF0020024000100240942D0008D5
:101EF4000000002008000020014B1868704700BF54
:101F04000000002008B5FFF7F7FF044B5B68C3F33C
:101F14000223034AD35CD84008BD00BF001002402E
:101F24008C2D000808B5FFF7E7FF044B5B68C3F38B
:101F3400C223034AD35CD84008BD00BF001002404E
:101F44008C2D000870B582B00446036813F0010FAD
:101F540036D03F4BDB6913F0805F49D13C4BDA69E3
:101F640042F08052DA61DB6903F080530193019BF4
:101F74000125384B1B6813F4807F3BD0344B1B6A1C
:101F840013F4407313D0626802F440729A420ED084
:101F94002F4A136A23F440702F490126C1F8406484
:101FA4000026C1F84064106213F0010F36D1284AAC
:101FB400136A23F4407361680B431362002D3ED10E
:101FC400236813F0020F06D0214A536823F44043D8
:101FD400A1680B435360236813F0100F34D01C4ADC
:101FE400536823F4800361690B43536000202CE0A1
:101FF4000025BEE7174A136843F480731360FEF7A5
:1020040009FD0646134B1B6813F4807FB6D1FEF717
:1020140001FD801B6428F5D9032016E0FEF7FAFCC5
:1020240006460B4B1B6A13F0020FC0D1FEF7F2FCFD
:10203400801B41F288339842F3D9032005E0D36929
:1020440023F08053D361BBE7002002B070BD00BF12
:1020540000100240007000400000424230B4036AA5
:10206400026A22F0010202624268846924F0730C5D
:102074000C6844EA0C0423F0020C8B6843EA0C035A
:10208400114DA84203D005F50065A84205D123F0FF
:102094000803CD682B4323F004030B4DA84203D05F
:1020A40005F50065A84207D122F440724D6945EA5E
:1020B400020C8A6942EA0C02426084614A68426303
:1020C400036230BC704700BF002C014030B4036A87
:1020D400026A22F4807202624268C46924F0730CBA
:1020E4000C6844EA0C0523F400738C6843EA042367
:1020F400114CA04203D004F50064A04206D123F49D
:102104000063CC6843EA042323F480630A4CA042AE
:1021140003D004F50064A04207D122F440524C6974
:1021240042EA04128C6942EA04124260C5614A68B8
:10213400C263036230BC7047002C014030B4036AB0
:10214400026A22F4805202624468C26922F4E642BE
:102154000D6842EA052223F400538D6843EA0533EF
:10216400094DA84203D005F50065A84204D124F422
:1021740080444D6944EA85144460C2614A6802643B
:10218400036230BC704700BF002C014010B4036AE6
:10219400046A24F001040462846924F0F00C4CEA1B
:1021A400021223F00A030B438261036210BC7047DE
:1021B40010B4036A046A24F010040462846924F4E9
:1021C400704C4CEA023223F0A00343EA011382610B
:1021D400036210BC7047836823F070030B4343F021
:1021E40007038360704770470368244A904212D003
:1021F40002F5006290420ED0B0F1804F0BD0A2F5F0
:102204009832904207D002F58062904203D002F5E2
:102214008062904203D123F070034A681343174A43
:10222400904212D002F5006290420ED0B0F1804F7D
:102234000BD0A2F59832904207D002F5806290420A
:1022440003D002F58062904203D123F44073CA683C
:10225400134323F080034A69134303608B68C3620A
:102264000B688362054B984203D003F500639842E0
:1022740001D10B690363012343617047002C0140C2
:1022840040B310B5044690F83D30F3B1022384F80E
:102294003D30214651F8040BFFF7A6FF012384F8D3
:1022A400463084F83E3084F83F3084F8403084F877
:1022B400413084F8423084F8433084F8443084F860
:1022C400453084F83D30002010BD80F83C30FEF7E6
:1022D40085F9DBE70120704740B310B5044690F858
:1022E4003D30F3B1022384F83D30214651F8040B0C
:1022F400FFF77AFF012384F8463084F83E3084F8EF
:102304003F3084F8403084F8413084F8423084F817
:10231400433084F8443084F8453084F83D3000205C
:1023240010BD80F83C30FFF75EFFDBE7012070470B
:1023340030B4036A026A22F01002026244688269BD
:1023440022F4E6420D6842EA052223F020038D6858
:1023540043EA0513114DA84203D005F50065A842D0
:1023640006D123F08003CD6843EA051323F040032C
:102374000A4DA84203D005F50065A84207D124F40C
:1023840040644D6944EA85048D6944EA85044460E7
:1023940082614A688263036230BC7047002C01404A
:1023A40038B590F83C30012B66D004460D46012325
:1023B40080F83C300C2A5AD8DFE802F00759595902
:1023C4001B5959593059595944000068FFF746FEC2
:1023D4002268936943F0080393612268936923F0A8
:1023E400040393612268936929690B439361002074
:1023F4003EE00068FFF79CFF2268936943F40063A2
:1024040093612268936923F48063936122689369DA
:10241400296943EA01239361002029E00068FFF75A
:1024240055FE2268D36943F00803D3612268D36957
:1024340023F00403D3612268D36929690B43D36170
:10244400002015E00068FFF779FE2268D36943F4A1
:102454000063D3612268D36923F48063D361226863
:10246400D369296943EA0123D361002000E00120F4
:10247400002384F83C3038BD0220FCE710B48468A3
:1024840024F47F4C42EA03220A4342EA0C028260AB
:1024940010BC704790F83C30012B78D010B504463E
:1024A400012380F83C30022380F83D3002689368B1
:1024B40023F47F4323F0770393600B68602B4CD0A5
:1024C40029D8402B54D00CD9502B22D1CA68496842
:1024D4000068FFF75BFE50212068FFF77CFE0020B8
:1024E40005E0202B0DD009D9302B0AD0012001237F
:1024F40084F83D30002384F83C3010BD0BB1102B20
:1025040005D119462068FFF766FE0020EFE7012099
:10251400EDE70120EBE7B3F5805F34D0B3F5005F5E
:102524000CD1CB684A6889680068FFF7A7FF226866
:10253400936843F4804393600020D8E7702B24D140
:10254400CB684A6889680068FFF798FF2268936837
:1025540043F0770393600020C9E7CA6849680068BC
:10256400FFF726FE60212068FFF735FE0020BEE756
:10257400CA6849680068FFF709FE40212068FFF730
:102584002AFE0020B3E70020B1E70120AFE70220D4
:102594007047000090F83C20012A34D010B4034660
:1025A400012280F83C20022280F83D200268506815
:1025B400946820F0700C086840EA0C0050601A68B7
:1025C4001248824212D000F5006082420ED0B2F16D
:1025D400804F0BD0A0F59830824207D000F5806080
:1025E400824203D000F58060824204D124F080044A
:1025F400496821439160012283F83D20002083F83B
:102604003C0010BC70470220704700BF002C014002
:10261400024690F83C30012B21D0012380F83C3055
:10262400CB6823F440738868034323F480634868C9
:10263400034323F400630868034323F480530869C5
:10264400034323F400534869034323F48043C969D3
:102654000B4311684B64002082F83C007047022051
:102664007047026802F10C0353E8003F23F49073AF
:102674000C3242E800310029F3D1026802F114035C
:1026840053E8003F23F00103143242E800310029EB
:10269400F3D1036B012B05D0202380F842300023B3
:1026A40003637047026802F10C0353E8003F23F010
:1026B40010030C3242E800310029F3D1ECE790F822
:1026C4004130DBB2212B01D0022070478368B3F57F
:1026D400805F17D0036A5A1C02621A7803685A6032
:1026E400C38C9BB2013B9BB2C3844BB90268D368D1
:1026F40023F08003D3600268D36843F04003D360BF
:10270400002070470369002BE4D1036A1B88026828
:10271400C3F308035360036A02330362E0E7000073
:1027240010B504460268136923F44053C1680B438F
:10273400136183680269134342691A430168CB68D1
:1027440023F4B05323F00C031343CB6002685369A2
:1027540023F4407381690B4353610268134B9A421B
:1027640020D0FFF7CFFB024602EB820202EB82028B
:1027740063689B00B2FBF3F20D48A0FB02314909E8
:10278400642303FB11231B013233A0FB03035B0906
:1027940003F0F00202EB011203F00F03216813446B
:1027A4008B6010BDFFF7BEFB0246DDE70038014039
:1027B4001F85EB5160B310B5044690F8413013B354
:1027C400242384F841302268D36823F40053D3606F
:1027D4002046FFF7A5FF2268136923F49043136191
:1027E4002268536923F02A0353612268D36843F4AF
:1027F4000053D36000206064202384F8413084F8BF
:102804004230606310BD80F84030FEF74DF8D7E7E2
:1028140001207047704708B50168CA6822F0400279
:10282400CA60202280F84120FFF7F4FF002008BD91
:102834007047704708B5406A0023C385C384FFF717
:10284400F8FF08BD704790F84230DBB2222B69D103
:102854008368B3F5805F4FD0826AB3F5805F04D09C
:10286400002B56D10369002B53D103685B681370A6
:10287400836A01338362C38D9BB2013B9BB2C385E0
:10288400002B51D100B583B00268D36823F0200334
:10289400D3600268D36823F48073D36002685369F9
:1028A40023F001035361202380F842300023436363
:1028B400036B012B33D100230363026802F10C0381
:1028C40053E8003F23F010030C3242E800310029A2
:1028D400F3D103681A6812F0100F06D00022019297
:1028E4001A6801925B680193019B818DFFF7AAFF2F
:1028F400002003B05DF804FB0269002AACD1826AAF
:1029040003685B68C3F308031380836A023383623A
:10291400B1E703685B6803F07F031370A8E7FFF770
:1029240087FFE5E7022070470020704710B582B0AA
:10293400044602681368D068516913F00F0F09D177
:1029440013F0200F0CD010F0200F09D02046FFF711
:102954007AFF16E011F0010115D110F4907F12D125
:10296400216B012979D013F0800F03D010F0800F70
:1029740040F0138113F0400F03D010F0400F40F0EB
:10298400108102B010BD13F0010F06D010F4807F47
:1029940003D0626C42F00102626413F0040F04D0AD
:1029A40019B1626C42F00202626413F0020F04D0A7
:1029B40019B1626C42F00402626413F0080F07D08C
:1029C40010F0200F00D119B1626C42F00802626469
:1029D400626C002AD5D013F0200F02D010F0200F23
:1029E40029D123685B6903F04003626C12F0080F7D
:1029F40000D163B32046FFF734FE23685B6913F00C
:102A0400400F20D0226802F1140353E8003F23F062
:102A14004003143242E800310029F3D1E36B73B16F
:102A2400624A5A63E06BFEF71BFC0028A9D0E06BF6
:102A3400436B9847A5E72046FFF705FFD1E72046FB
:102A4400FFF7F7FE9DE72046FFF7F3FE99E72046E0
:102A5400FFF7EFFE0023636493E713F0100F82D0B7
:102A640010F0100F3FF47FAF00230193136801931C
:102A740053680193019B536913F0400F51D0E26BEB
:102A840013685B689BB2002B3FF47BAFA18D994226
:102A94007FF677AFE3859369202B37D0226802F164
:102AA4000C0353E8003F23F480730C3242E80031F6
:102AB4000029F3D1226802F1140353E8003F23F004
:102AC4000103143242E800310029F3D1226802F1F3
:102AD400140353E8003F23F04003143242E800316A
:102AE4000029F3D1202384F8423000232363226891
:102AF40002F10C0353E8003F23F010030C3242E8C8
:102B040000310029F3D1E06BFEF786FB02236363F7
:102B1400A18DE38D9BB2C91A89B22046FFF792FEBC
:102B24002FE7A18DE38D9BB2C91A89B2E38D9BB2C5
:102B3400002B3FF426AF00293FF423AF226802F1B3
:102B44000C0353E8003F23F490730C3242E8003046
:102B54000028F3D1226802F1140353E8003F23F064
:102B64000103143242E800300028F3D1202384F812
:102B7400423000232363226802F10C0353E8003F30
:102B840023F010030C3242E800300028F3D1022372
:102B940063632046FFF756FEF3E62046FFF78FFDFA
:102BA400EFE62046FFF737FEEBE600BF39280008C2
:102BB400024B13B1024800F095B8704700000000C2
:102BC400B92C000870B5860747D0541E002A3ED0A1
:102BD4000346CAB201E0013C39D303F8012B9D0737
:102BE400F9D1032C2CD9CDB205EB05250F2C1A46AF
:102BF40005EB054534D9A4F1100C2CF00F0603F1B4
:102C0400100EB6444FEA1C1C156055609560D560E3
:102C140010327245F8D10CF1010214F00C0F03EBE1
:102C2400021204F00F0C13D0ACF1040323F00303DD
:102C34000433134442F8045B9A42FBD10CF00304BE
:102C44002CB1C9B21C4403F8011B9C42FBD170BDDA
:102C540064461346002CF4D1F9E703461446C0E752
:102C6400A446E1E770B50F4B0F4DAB42A3EB05064D
:102C740007D00024B61055F8043B01349847A64207
:102C8400F9D800F075F8094D094B5E1BAB424FEAC9
:102C9400A60606D0002455F8043B01349847A64202
:102CA400F9D870BDB82D0008B82D0008B82D00085B
:102CB400C02D000838B5074D074C2C1BA41005D0B7
:102CC400013C55F8043D9847002CF9D1BDE8384043
:102CD40000F054B8C42D0008C02D0008704700BF90
:102CE400704700BF002301461A46184600F000B89A
:102CF4002DE9F8431B4D0646286898460F46914631
:102D0400FFF7ECFF184B1C681CB3286865681F2D7F
:102D140022DC4EB96B1C0235636044F82570FFF762
:102D2400DFFF0020BDE8F883012304EB8501C1F82F
:102D34008890D4F88821AB401A43022EC4F8882125
:102D4400C1F80881E6D1D4F88C211A43C4F88C2147
:102D5400E0E7064C1C60D8E7FFF7C2FF4FF0FF30F6
:102D6400E0E700BF0C000020280200203002002011
:102D7400F8B500BFF8BC08BC9E467047F8B500BF64
:082D8400F8BC08BC9E46704734
:102D8C00000000000102030400000000000000002D
:102D9C0001020304060708090102000002030405EE
:0C2DAC00060708090A0B0C0D0E0F101092
:082DB800B52B00084D020008D4
:042DC00025020008E0
:102DC4000024F40001000000100000002C02002088
:0400000508000945A1
:00000001FF
